:020000040000fa
:080000000002040000000000f2
:020000040000fa
:0400080020040000d0
:020000040000fa
:04000c0020040000cc
:020000040000fa
:0400100020040000c8
:020000040000fa
:0400140020040000c4
:020000040000fa
:0400180020040000c0
:020000040000fa
:04001c0020040000bc
:020000040000fa
:0400200020040000b8
:020000040000fa
:0400240020040000b4
:020000040000fa
:0400280020040000b0
:020000040000fa
:04002c0020040000ac
:020000040000fa
:0400300020040000a8
:020000040000fa
:0400340020040000a4
:020000040000fa
:0400380020040000a0
:020000040000fa
:04003c00200400009c
:020000040000fa
:040040002004000098
:020000040000fa
:040044002004000094
:020000040000fa
:040048002004000090
:020000040000fa
:04004c00200400008c
:020000040000fa
:040050002004000088
:020000040000fa
:04005400fa020000ac
:020000040000fa
:040058008e03000013
:020000040000fa
:04005c00200400007c
:020000040000fa
:040060002004000078
:020000040000fa
:040064002004000074
:020000040000fa
:040068002004000070
:020000040000fa
:04006c00200400006c
:020000040000fa
:040070002004000068
:020000040000fa
:040074002004000064
:020000040000fa
:040078002004000060
:020000040000fa
:04007c00200400005c
:020000040000fa
:040080002004000058
:020000040000fa
:040084002004000054
:020000040000fa
:040088002004000050
:020000040000fa
:04008c00200400004c
:020000040000fa
:040090002004000048
:020000040000fa
:040094002004000044
:020000040000fa
:040098002004000040
:020000040000fa
:04009c00200400003c
:020000040000fa
:0400a0004403000015
:020000040000fa
:0400a400e003000075
:020000040000fa
:0400a8002004000030
:020000040000fa
:0400ac00200400002c
:020000040000fa
:0400b0002004000028
:020000040000fa
:0400b4002004000024
:020000040000fa
:0400b8002004000020
:020000040000fa
:0400bc00200400001c
:020000040000fa
:0400c0002004000018
:020000040000fa
:0400c4002004000014
:020000040000fa
:0400c8002004000010
:020000040000fa
:0400cc00200400000c
:020000040000fa
:0400d0002004000008
:020000040000fa
:0400d4002004000004
:020000040000fa
:0400d8002004000000
:020000040000fa
:0400dc0020040000fc
:020000040000fa
:0400e00020040000f8
:020000040000fa
:0400e40020040000f4
:020000040000fa
:0400e80020040000f0
:020000040000fa
:0400ec0020040000ec
:020000040000fa
:0400f00020040000e8
:020000040000fa
:0400f40020040000e4
:020000040000fa
:0400f80020040000e0
:020000040000fa
:0400fc0020040000dc
:020000040000fa
:0401000020040000d7
:020000040000fa
:0401040020040000d3
:020000040000fa
:0401080020040000cf
:020000040000fa
:04010c0020040000cb
:020000040000fa
:0401100020040000c7
:020000040000fa
:0401140020040000c3
:020000040000fa
:0401180020040000bf
:020000040000fa
:04011c0020040000bb
:020000040000fa
:0401200020040000b7
:020000040000fa
:0401240020040000b3
:020000040000fa
:0401280020040000af
:020000040000fa
:04012c0020040000ab
:020000040000fa
:0401300020040000a7
:020000040000fa
:0401340020040000a3
:020000040000fa
:04013800200400009f
:020000040000fa
:04013c00200400009b
:020000040000fa
:040140002004000097
:020000040000fa
:040144002004000093
:020000040000fa
:04014800200400008f
:020000040000fa
:04014c00200400008b
:020000040000fa
:040150002004000087
:020000040000fa
:040154002004000083
:020000040000fa
:04015800200400007f
:020000040000fa
:04015c00200400007b
:020000040000fa
:040160002004000077
:020000040000fa
:040164002004000073
:020000040000fa
:04016800200400006f
:020000040000fa
:04016c00200400006b
:020000040000fa
:040170002004000067
:020000040000fa
:040174002004000063
:020000040000fa
:04017800200400005f
:020000040000fa
:04017c00200400005b
:020000040000fa
:040180002004000057
:020000040000fa
:040184002004000053
:020000040000fa
:04018800200400004f
:020000040000fa
:04018c00200400004b
:020000040000fa
:040190002004000047
:020000040000fa
:040194002004000043
:020000040000fa
:04019800200400003f
:020000040000fa
:04019c00200400003b
:020000040000fa
:0401a0002004000037
:020000040000fa
:0401a4002004000033
:020000040000fa
:0401a800200400002f
:020000040000fa
:0401ac00200400002b
:020000040000fa
:0401b0002004000027
:020000040000fa
:0401b4002004000023
:020000040000fa
:0401b800200400001f
:020000040000fa
:0401bc00200400001b
:020000040000fa
:0401c0002004000017
:020000040000fa
:0401c4002004000013
:020000040000fa
:0401c800200400000f
:020000040000fa
:0401cc00200400000b
:020000040000fa
:0401d0002004000007
:020000040000fa
:0401d4002004000003
:020000040000fa
:0401d80020040000ff
:020000040000fa
:0401dc0020040000fb
:020000040000fa
:0401e00020040000f7
:020000040000fa
:0401e40020040000f3
:020000040000fa
:0401e80020040000ef
:020000040000fa
:0401ec0020040000eb
:020000040000fa
:0401f00020040000e7
:020000040000fa
:0401f40020040000e3
:020000040000fa
:0401f80020040000df
:020000040000fa
:0401fc0020040000db
:020000040000fa
:0402000020040000d6
:020000040000fa
:0402040020040000d2
:020000040000fa
:0402080020040000ce
:020000040000fa
:04020c0020040000ca
:020000040000fa
:0402100020040000c6
:020000040000fa
:0402140020040000c2
:020000040000fa
:0402180020040000be
:020000040000fa
:04021c0020040000ba
:020000040000fa
:0402200020040000b6
:020000040000fa
:0402240020040000b2
:020000040000fa
:0402280020040000ae
:020000040000fa
:04022c0020040000aa
:020000040000fa
:0402300020040000a6
:020000040000fa
:0402340020040000a2
:020000040000fa
:04023800200400009e
:020000040000fa
:04023c00200400009a
:020000040000fa
:040240002004000096
:020000040000fa
:040244002004000092
:020000040000fa
:04024800200400008e
:020000040000fa
:04024c00200400008a
:020000040000fa
:040250002004000086
:020000040000fa
:040254002004000082
:020000040000fa
:04025800200400007e
:020000040000fa
:04025c00200400007a
:020000040000fa
:040260002004000076
:020000040000fa
:040264002004000072
:020000040000fa
:100400000f3121000eff27000e01880000000000c0
:10041000000020000000e000020032000001200087
:100420002002880014000700070107000000e00018
:1004300003003a00a08322000100200002003700e0
:100440000000200001002000810f70000100320038
:100450000f000700000020000000e0000200320052
:100460000000020000000000781d020000000000f3
:100470000040da000000fe00400420000000e00020
:1004800002003200002020009001880000000600d9
:10049000a1028800800478000000eb001f003700f4
:1004a000e284440054a0b4009905ba00e2844400f8
:1004b00054a0b4009906ba00e284440054a0b400e9
:1004c0000006eb00476fde00fd07b200ae018800ba
:1004d000636ce10003003a000ad801000000eb0061
:1004e0000e003700606ce10008003a00004deb00a0
:1004f0000a05e800020039003420ec000af0a000f0
:100500008b05e900f9ff3e00040037006168e10057
:10051000010032000086eb000b00070019c7ba008b
:100520000e04e0001905ba0003003a000a00e000da
:10053000dbff3a0000000600fe07b200ae028800b2
:100540008a047800f5ff37000cd0a300e20f4d00bd
:100550001c003b0089027800354dba000a05e8000e
:10056000020039003420ec000af0a0008b05e900fd
:100570000f003200254dba000a05e80002003900dc
:100580003420ec000af0a0008b05e90008003200de
:100590000c00e0000600320015cdba000a05e800a4
:1005a000020039003420ec000af0a0008b05e900bd
:1005b0008984e80054a0b4000b00e000e2ff3a0098
:1005c000000006009902ba00055d78008b05e9007d
:1005d000f7ff3200c82ade00055d78008b05e900d0
:1005e000f3ff32000c00e000f1ff320019ddba0029
:1005f000eeff37003600f800809fbe00829fbe00ed
:10060000849fbe00869fbe003200f8003400f800d0
:1006100010002000a00188000020200000d0fe0073
:100620000200fa000168a9000500370030118000bf
:10063000004f78009e40780000012100f40f070071
:1006400010118000610060000000e000f7ff3a0038
:1006500010118000620060000000e0000100320024
:100660002222a9000080fa003400f9003200f900cb
:100670004f03be004f02be004f01be004f00be0040
:100680003600f900004006003600f800809fbe00ea
:10069000829fbe00849fbe00869fbe003200f8008d
:1006a0003400f80010002000a00188000020200085
:1006b00000d0fe000000fa0003c8a90005003700c2
:1006c000b0118000004078008040780020092100af
:1006d000cf0f070090118000610060000000e00073
:1006e000f7ff3a0090118000620060000000e00017
:1006f000010032003222a9000080fa003400f90023
:100700003200f9004f03be004f02be004f01be0091
:100710004f00be003600f900004006003600f80029
:10072000809fbe00829fbe00849fbe00869fbe0049
:100730003200f8003400f80010002000a00188000a
:100740000020200000d0fe000200fa000b0037005d
:100750001111800000202000008060000000e000f7
:1007600006003a008e00780040112100cb0f0700f0
:100770001e4078000000fb0020118800e08b800004
:100780000000e000f2ff3c000188a900e08b80003f
:100790000000e00001003c002188a9000080fa0070
:1007a0003400f9003200f9004f03be004f02be00d2
:1007b0004f01be004f00be003600f90000400600a9
:1007c0003600f800809fbe00829fbe00849fbe005e
:1007d000869fbe003200f8003400f80010002000b0
:1007e000a00188000020200000d0fe000200fa00d6
:1007f0008e00780060192100a80f07001e407800c5
:100800000000fb00a011880003e8a900f08f800021
:100810000000e00001003c0023e8a9000080fa008d
:100820003400f9003200f9004f03be004f02be0051
:100830004f01be004f00be003600f9000040060028
:100840000040da000000fe00000005000001be00cc
:100850003f0007000470a70003f0a1006509b10084
:10086000160032000d0035006828e1000600350052
:10087000f0ff2f00f1ff27000300e00013003b0012
:1008800001002800000005000000400081804800b1
:100890008502e900fcff3a0008003700f88f4200ab
:1008a00002003c008000eb00000005008100d10048
:1008b0000080d3008502e800fcff3a000300e0005e
:1008c00002003b0060001000e080180000000600fd
:1008d0000001be001e0007000470a70003f0a10085
:1008e00003f8a30013003a006509b10010003200bc
:1008f000090035006928e1000200350001002800e8
:100900000000050000004000818048008502e900e9
:10091000fcff3a0000000600f88f42000500350099
:100920008100d1000080d3008502e800fcff3a007e
:10093000000006008000eb00000005004f89de008b
:10094000820178007e0237006011b8008c02370007
:10095000c70ade00f107b200f50fb200080032004e
:10096000e1cf4200020032000170a0002400050027
:10097000810f7000010032000408050044000500ea
:10098000810f700002003a00140005008502e900a2
:100990000000400081c04800fcff3b000170a00047
:1009a00024000500889fbe008a9fbe008c9fbe0069
:1009b0001b0020000202be00058668000600280019
:1009c000060666004709de00f20fb2008200320020
:1009d0000243e80080003200c729de00f30fb200b6
:1009e0007d0032000343e8007b003200f107b200d3
:1009f0000170a000f507b2000570a000c708dd0077
:100a00004903de00868070004700dd00c72add0054
:100a10004923de00868272004722dd000305510073
:100a2000040350008583580003003100000040009b
:100a3000818048000a05e9008c1f78008a9fbe006b
:100a400004005000858058000402420085824a005c
:100a500000004000818048000005eb000004be005b
:100a60006033b8000406be000d48e10056003100b6
:100a7000110009004dccd8000c01b8000d02b800df
:100a80008481410060824a008283530003045c0039
:100a900084845c0060055d000a00e00025003a00e7
:100aa000800578000d40e1004900310088007800a1
:100ab00007007800110009004d88d8000c01b8002b
:100ac0000d02b8008481410060824a006003110079
:100ad00083835b0004045c00e0845c000900e000a8
:100ae00021003a004f01be000300e0002b0032005d
:100af000e3016000070673008c8171000100320081
:100b0000640070004200de004e5edd000c007000ec
:100b1000c258de0001e0a00083010700cf01780089
:100b2000818071004f06be004f05be004f04be001d
:100b3000000006008c8343000d044c00e0844c0050
:100b400060054d000000e9000a00e000d4ff32001b
:100b50008c8343000d044c00e0844c0060054d0084
:100b60000000e900ceff37000c0343008d834b00eb
:100b700060044c00e0844c000000e9000900e00043
:100b8000d8ff32000c0343008d834b0060044c00ff
:100b9000e0844c000000e900d2ff37004200de0094
:100ba0004e5edd000c007000c258de0001e0a000c7
:100bb000cf0178000300e000daff3200600010008f
:100bc000e0801800d7ff3700f0ff2f00aaff3700a2
:100bd000f0ff2f00b9ff37000404be002f0107000b
:100be000870678000004fd008104fd002b0107004a
:100bf000078366000678a300030032000960a7009f
:100c00000800be002c0037000d78a300020032005f
:100c10000800be00280037000778a30026003a002d
:100c200001f0a10009f0a1000668a3000300320052
:100c3000f1ff2700f0ff2f00baff37000d68a30077
:100c4000030032000800be008c807000b5ff370042
:100c50000768a30007003a000648a300030032001b
:100c6000f1ff2700f0ff2f00aeff37000d48a30073
:100c7000030032006000b8008c807000a9ff3700cc
:100c80000748a3000400320001f8270000002000fc
:100c90008c807000a3ff3700760107000004fd0080
:100ca0008104fd0002057800720107000802be0001
:100cb0008a01780059ff37000160a000120220006d
:100cc0007280880097ff37000100e00012003200b8
:100cd0000500e00010003200889fbe008a9fbe0021
:100ce0008c9fbe000006eb0001f8a3000300320059
:100cf00060001000e08018000cf0a00005f8a300d0
:100d00000300320060021200e0821a000cf0a20020
:100d10008005eb0041ff37006000b80002000500cd
:100d2000038368000700280007036300470ade000a
:100d30000480a100c71ade000580a100f70f200083
:100d40000720e100420032000728e10040003200a5
:100d5000889fbe008a9fbe008c1f7800f107b200fa
:100d6000f307b2000400e000640032000170a0004c
:100d70000500e000680032000370a0008505420015
:100d8000eb07b1000204b8000302b80084844400f9
:100d900060854a00020ab800848444000a854a003b
:100da000030ab80004054500040033000804d0001d
:100db0008984d2000a85d2008b05e9006158e100e0
:100dc0003d003500021020000901610003082000e9
:100dd00089816100f707200087836400088673001b
:100de000c84cde00c853dd00878474004855de001f
:100df0000300e000060032008203760004003200a7
:100e00008904e80060054d000a88a3000c003a0040
:100e1000f70f20000758e10044003d000a70a100d0
:100e2000c75ddd000a8575008a007300090078003f
:100e30004f0678004f05be004f04be0000000600bc
:100e40000a05d1008984d3008b05e800f0ff370044
:100e5000881f7800060478009000070007027800d9
:100e60000001fd008101fd008c0007008702780071
:100e7000850372000778a300050032000001fd0021
:100e80008101fd009f0007004f047800000006006c
:100e9000850372000748a30003003200f0ff2f0013
:100ea000f1ff2700f8ff37000000200001f82700bd
:100eb00088807000f4ff3700880178004848dd0022
:100ec000808171004848de00c850dd0001007000dc
:100ed000c850de00060478000b01780016000700f9
:100ee00088807000d2ff37000500e0000500320066
:100ef000170020003a0007009dff370081037000b3
:100f0000f9ff3a00860078004f0678004f05be00d2
:100f10004f04be000000050083037100f9ff32009a
:100f2000270020002e00070094ff370001f827005b
:100f300086807000f4ff37000100e00026003200d8
:100f4000610111007810e10023003c006022b8002c
:100f50007010e10004003500800278000100780084
:100f60008000eb00700151000200e0000900340035
:100f700070031100062add00822ade008603dd00f0
:100f8000878272000200de00860bdd000700700021
:100f90008208de0084817100f4ff27000482620071
:100fa0008481710004002800848262006102600074
:100fb00005f0a60000000600048271000700320060
:100fc0000000e800e0804800000006000002be00cb
:100fd0006000b800efff37006000b80000000600b6
:100fe000889fbe000004eb006138e10016003a0063
:100ff0000100e00008003a00c800de004800dd0003
:10100000880020000100e00003003a00c800de0074
:101010004800dd00680444008184cf00e984540066
:10102000060034008908dd00f08314008703de0029
:10103000878070000900dd0009044400610214008b
:101040004f04be00000006000300e00008003a0064
:10105000c811de004811dd00880020000300e00018
:1010600003003a00c811de004811dd0068044400a6
:101070008384cf00e9845400060034008919dd0020
:10108000f08314008713de00878171000911dd00f1
:1010900009044400e1021400e9ff370027002000a2
:1010a00001f0a70017002000470bde00f60fb2008a
:1010b000040032000643e8000a0032004702b30091
:1010c0000000060001037800f607b2000603700076
:1010d00002003a000703b300000006008702b300d5
:1010e0000000060001037800f607b2000603700056
:1010f000020032000770a000000006000760a00098
:10110000000006000478a300040032000578a30064
:10111000030032000168a30001003a000200be0093
:101120000160a0000000060081017000270032006d
:101130008002eb0001f8a300030032006000100001
:10114000e080180015002000f40720000202420091
:1011500020003400f703200087036000060420000d
:101160000003630002082000000161004700de0068
:10117000c909dd0000807100c708de000600e0003c
:101180000800320087037100060032001000b00032
:101190000180b0000188a30002003200c108de0017
:1011a0000402e800f107b200f30f20000320e10081
:1011b00003003d004722dd00810072002900370056
:1011c00001f827000000eb00260037006000b8009f
:1011d00000000600680212007f20e10002003400d7
:1011e0006000b8001f0037006011b8007020e100f7
:1011f0000400350080017800010078008000eb00d9
:10120000700252000400e00009003400f0031200f4
:101210000719dd008419de000703dd0086817100f7
:101220000400de00070bdd00060070008408de000d
:10123000f7ff2700838363008703710006002800ff
:1012400003036300070032000700e00003003a00d8
:101250006101600002817300020032001000b000e2
:101260000180b0000500a6000000060001f0a0000b
:10127000000006004f0ade004709de00f107b20059
:10128000f20fb2000b003200f207b1000170a000b3
:10129000c708dd00c901de00838070004700dd0063
:1012a0000400a6000000060060001000e0801800a6
:1012b00000000600810f700001003a0000000600e7
:1012c0008182cf000500e00010003e008082cf0048
:1012d000ee8242007028e1000400390007003e0061
:1012e000800078000000eb000e00370070831200d1
:1012f0008600de000500dd000a0037007083520022
:101300008600dd000000eb0006003700e28252009c
:101310008508dd00708312000603de008680700001
:101320000500dd007507b0000501ea000400a60015
:101330000000060060001000e080180000000600b9
:10134000881f7800030478000300e00007003d00d8
:1013500060001000e080180060011900e0811900b1
:1013600002003b0001f02d000300370004000700dd
:1013700008f0a70001f0a0004f047800000006006c
:10138000889fbe008a9fbe00008270000402710028
:1013900004827100260032000004be000200be007c
:1013a0006011b8006b092000950220000182cf0077
:1013b0000a0039000541b1000082cf000700390062
:1013c0000541b1000982cf00040039000541b10098
:1013d0000882cf00010039000541b10005425200ea
:1013e000120032000a003b0082817100610164003a
:1013f0008100d1000080d3008984d3000884d30009
:101400008b05e8000442e800f7ff3a0007003700c8
:101410000804440089844c00000048008180480092
:101420008b05e9000442e900f9ff3a0003000700d8
:101430004f05be004f04be000000060081002000e2
:10144000618055000b003d000b00200061fe2f0065
:101450000100e1001d00340082817100610164001f
:101460008904d1000884d3000000e800faff3a00a4
:101470007100200061006400030070000200600041
:101480000900320061044400e0844c000988a50092
:10149000050032008b05e8006808e10002003a0010
:1014a0008904d1000884d300f20f20000258e10023
:1014b00005003d00c75ddd00f907b20089807500b9
:1014c00008007800000006000bf827008b00780069
:1014d00000000500000006000800fa00889fbe001a
:1014e0008a9fbe008c9fbe000004be000200be00aa
:1014f000e2b79f00f3b79f00f6ff07008102780074
:1015000005f0a100000278000c0020000df8270073
:101510006fb19700ffb197008c0f52008d8f5a006a
:101520000a003e000800be00eaff070081027800c2
:1015300005f0a100000278006fb19700ffb197009d
:101540008c0f52008d8f5a00030036000800be0039
:101550005c070700980037000203be00000020006f
:1015600001f82300800f5300818f5b0003003a00d5
:101570000800be00980007008f0037000802be0078
:101580004e3dde000b0020006000b80062006500e8
:101590004f4dde000b0020000a0570008b857000a7
:1015a0008500780001f0a10008007800e00f5000ed
:1015b000e08f580007003a00e20f5500e08f5d0011
:1015c00033003200e30f5500e08f5d007b003a00ee
:1015d000320037008702780005f0a100060278008b
:1015e000e00f5200e08f5a003b0032008c0f520097
:1015f0008d8f5a002c003a00840f5000858f5800c0
:1016000018003a00e20f5500e08f5d00090032003b
:10161000e30f5500e08f5d0009003200e10f550037
:10162000e08f5d005b003200b8fd200099f42300dc
:10163000620037000200200003042400020037008b
:101640000200200003042c00b0fd200091042400bf
:10165000b3fd07000200200003e82300b0fd0700ef
:1016600055003700e20f5500e08f5d0008003200a2
:10167000e30f5500e08f5d00080032006044b800c1
:10168000e10f5500e08f5d004c003a004400370048
:10169000b8fd20009904240048003700b8fd200060
:1016a00099042c00450037000600200007d02000d8
:1016b0000403430085834b0086bf9f0097bf9f00b4
:1016c000800f5300818f5b00030039008c0f5000a6
:1016d0008d8f580005003a000a08a300330032003d
:1016e000b8fd200099fc2b00340037006033b800af
:1016f00062036500e00f5300e08f5b0008003200da
:101700000c0020000dd020000003460081834e0015
:101710006000b800840f5300858f5b00040039001f
:101720000800be009ffc0700030107002a00070015
:10173000e10f5500e08f5d00050032001e0039000a
:10174000e20f5500e08f5d000b003a000300370008
:101750000004be0009f0a20018003700e2d22b00fe
:10176000b33b2300d70607000001be00b0fd2000f8
:101770009104240005003700e2d22b00b33b230084
:10178000d0060700b2fd200093042400c406070021
:1017900009003700b8fd200099f42b00070037003e
:1017a000080020000900280004003700b8fd2000d0
:1017b00099fc2300010037000004be000800be00b1
:1017c0004f06be004f05be004f04be000080fa0069
:1017d00000000600000006000c00fa00889fbe0012
:1017e0008a9fbe008c9fbe000004be004f09de0031
:1017f00003002000e2b79f00f3b79f008106780046
:101800000df0a10000067800f0ff2f00f1c72400c2
:10181000800f5600818f5e00100036000800be0069
:10182000ecff07008101780003f0a10000017800bf
:101830000000200001f82700800f5100818f59001f
:10184000b7003e000200200003382000a0fd200069
:1018500091fc23009b060700a8003700f0ff2f0033
:10186000f1ed2300800f5600818f5e0011003e00d5
:101870000085eb00f0ff2f00f1972300800f56004a
:10188000818f5e0055003e00f0ff2f00f107200021
:10189000800f5600818f5e00a1003e000801be004f
:1018a0000800be001efd0700c0b79f00d1b79f0013
:1018b0009b0037000800be009f0007000004be0028
:1018c000f0ff2f0071f92300800f5600818f5e001a
:1018d00025003e00f0ff2f00f1f22300800f56009c
:1018e000818f5e0011003e000801be000800be00ae
:1018f000740607000200200003f8230068060700b2
:101900000005be0002002000030024000800be0005
:101910006c0607000001be000a00be0021fc0700a3
:101920000004be000005eb002c0037000200200080
:1019300003f823000800be00590607000005be009a
:101940000200200003f823000800be005d06070027
:101950000001be000a00be0012fc07000004be0029
:101960001a0020001d003700f0ff2f00b1012400f5
:10197000800f5600818f5e0012003e0002002000a2
:1019800003fc23000800be00450607000005be005a
:101990000200200003fc23000800be00e0fc07005a
:1019a0000200200003f82300460607000001be00e5
:1019b0000a00be00fbfb07000004be002a00200056
:1019c000060037000801be000000200001f82b00cf
:1019d000f4fb07000004be003a0020000801be002e
:1019e0000800be00cefc07000002be000001be00e1
:1019f00084bf9f0095bf9f00c9fc07000006be0082
:101a000052c22a00c3d72300c5fc0700d2502f00c2
:101a100013e123002b0607000001be000c00be00ee
:101a2000bffc070092aa2a00a3ea230025060700ac
:101a30000001be000fba97009fba97000400be00d5
:101a4000b7fc07000002be0072242100a3dd2b00ba
:101a50000c00be0084bf9f0095bf9f00b0fc070034
:101a600082a92c00c3e423000d0607000001be007c
:101a70000c00be00aafc07000001be000fba9700d0
:101a80009fba9700e10f450009003a000400be002c
:101a90000c0607000001be000800be00a0fc070005
:101aa0000001be000800be00fd0507001b00370056
:101ab0004255dd000c2d21000a0646000400be0040
:101ac000000607000001be000800be0094fc0700ed
:101ad000022e21000a0541001a0178009a019000a7
:101ae000ef0507000801be00ed0507000001be007c
:101af0001c0078009c009000e90507006fb197007a
:101b0000ffb19700e00f5100e08f59000300320051
:101b10000004be0009f0a200010037000004be006e
:101b20000800be004f06be004f05be004f04be00b9
:101b30000080fa00000006000001be00830078006b
:101b400001f0a10002007800000006000000fa0089
:101b500068815700cfb897000d0207000080fa0097
:101b6000000006001e00070079000700b100070012
:101b70002d01070057010700610207000802370026
:101b80000000fa0068815700cfb8970000020700f4
:101b90000080fa0000000600110007006c0007003a
:101ba000210107004b010700a200070054020700b3
:101bb000fb01370081017800000278003041780095
:101bc000b14f510002003a000204e000f9ff3a0070
:101bd0009480fb001380fb00008050000000060092
:101be000ec874700889fbe008a9fbe008c9fbe0086
:101bf0008e1f780000067800010478001807900016
:101c00002805900098067800cdb79f00b805900091
:101c1000120278009202900022039000b20390001a
:101c20000400be000601be004f18de006011b800bf
:101c30008000eb00d0b79f00e1b79f00f2b79f0094
:101c400083bf9f00800478000900e0000600320096
:101c50006000b8006011b80004025000858258008e
:101c600006035900878359000e00e000020035008a
:101c70000d10a100cdb79f000900e00005003a005b
:101c80004fb097000028a30002003a000038a300dc
:101c9000020032008a00e900010037008a00780063
:101ca000f8815700a2002000080078008b00070090
:101cb0000900e00003003a00cfb097000128a3001c
:101cc000080032000000e90000814500b1c2b30005
:101cd0000900e00001003200d1c2b30001497800e0
:101ce000060037000138a300040032000000e900bc
:101cf0008080450002c2b30082487800480190000d
:101d00000201e90000015100808045004fb29700b8
:101d10008a0178000c007800440207009c009000c3
:101d20000188a3000400320098009000810f500049
:101d300001003d00010078004f0778004f06be000b
:101d40004f05be004f04be00cf00b10000000600ea
:101d50000200fa00889fbe008a9fbe0080057800be
:101d60000104780002007800180190002805900016
:101d700098007800b1bf9f00b80490000200e00016
:101d8000020035000110a100b1bf9f00ea81570099
:101d9000820020008a0078001002780090029000f3
:101da00020039000b0039000080078004b0007006b
:101db0003fb99700f0006100040032000000e90024
:101dc0008080440002c3b300824878003fb9970086
:101dd000e8006100040032000000e9008080440057
:101de00002c2b30082487800480190000201e90075
:101df00000015100808044003fba97008a017800ba
:101e00000b007800090207009b0090000188a300e6
:101e10000400320098009000810f500001003d0046
:101e2000010078004f05be004f04be000080fa009c
:101e300000000600ea874700889fbe008a9fbe0018
:101e40008e1f780000047800030078007287570026
:101e500084e2260055c72600049fbe00c3962200d8
:101e6000030f78006c875700004feb0011059000be
:101e7000a1049000910578000200e0000200320009
:101e80000207780001003700728757000000e00069
:101e900002003a000e007800610407000a00e0002a
:101ea000030035008a0f5000010036000a00780058
:101eb0000b02780089017800000178008e0078001c
:101ec00008007800d90107004f0778004f05be00d1
:101ed0004f04be00af00b10000000600f4874700c9
:101ee000889fbe008a9fbe008c9fbe008e1f780018
:101ef0000605be000404be0081bf9f0082b79f009c
:101f0000f3b79f00b0009000e1b79f001301780085
:101f100092b79f0090069000400090000000e900fa
:101f2000000678000d00e00001003d001d002000cb
:101f3000efb19700008041000048eb001e00200038
:101f40001f0037000c06e9000fb09700cf80de00bd
:101f50006109b900a0b79f00b1b79f00c2b79f0049
:101f6000d3b79f000203be000002be000800be00ff
:101f70000a01be005a06070000077800efb097007c
:101f80000c80400003c3b300034847008d06e900fe
:101f90000fb897000000e90080bf9f002fb29700a4
:101fa000bfb297004fb39700dfb397000800be00a1
:101fb0000a01be00430607000205be000004be0081
:101fc0000c00e0000d003400e00f5400e08f5c00d6
:101fd000e00f5d00e08f5d00daff3a000d00e000e9
:101fe000d8ff3c008fb897000100e00003003400e8
:101ff0001fb197000218a300d2ff3a000e00e000c4
:1020000002003a00ffb197001340a1000c007800d5
:102010004f0778004f06be004f05be004f04be00bc
:102020004f01b100000006000200fa00889fbe00c8
:102030008a9fbe0000057800010478000200780045
:1020400018019000a804900098007800b1bf9f008c
:10205000b80590000200e000020035000110a10068
:10206000b1bf9f00ea815700a200200089007800dc
:10207000100278009002900020039000b0039000be
:102080000800780095ff0700480190000201e90070
:1020900000015100808045003fba97008901780017
:1020a0000a007800610107009a0090000188a300ef
:1020b0000400320098009000810f500001003d00a4
:1020c000010078004f05be004f04be000080fa00fa
:1020d00000000600fa874700889fbe008a9fbe0066
:1020e0008c9fbe008e1f7800800478000104780069
:1020f00082057800180190002805900018077800e4
:10210000b80090000200e000020035000e10a100af
:10211000010037001200200070006700e0b79f0048
:102120000b0032001b0278009b0290002b039000f2
:10213000bb039000e00f5200e08f5a00e00f5b00fd
:10214000e08f5b00020032008a86e9000100370060
:102150008a067800e8026700f5b79f0001003200a8
:102160008d06e9001b0278009b0290002b03900073
:10217000bb039000e4af9f00f5af9f0086b79f00c0
:1021800097b79f00480690000c06e9000c804000bd
:102190000048eb00efb297007fb297008903780008
:1021a00081047800d8af9f00020478008bbf9f00a5
:1021b0008a057800034578002b0037000c06e900fb
:1021c0006fab97006f006300e90f500002003c0006
:1021d0000003b000010037007005b0000a03fb00e7
:1021e0001604b100f90f53000c003e000003780004
:1021f0000650a0001606b100f90f530007003e007c
:10220000b4b79f00a5b79f00c7b79f00a3030700ff
:10221000cfb39700afb297003fb297000c83440052
:10222000004b78000804e9008d06e9006fa89700cc
:10223000ffa897000fb197009fb1970046002000bc
:102240008301d1000281d3008180d3000080d300bc
:102250000603e900faff3a00e0af9f00f1af9f00ec
:1022600082b79f0093b79f00e10f56000f00340024
:102270006fa89700ffa897000fb197009fb1970034
:10228000e00f5000e08f5800e00f5900e08f590038
:10229000caff3a000800e000c8ff3c000d00e00063
:1022a000020034000e18a300c4ff3a008900780031
:1022b000f4b79f00870478005fac97008a417800ec
:1022c0000b0578008fbd97000500e0001400320078
:1022d0001b0278009b0290002b039000bb03900030
:1022e000e4af9f00f5af9f0086b79f0097b79f00b0
:1022f000e00f5200e08f5a00e00f5b00e08f5b00c0
:10230000070032000c06e9000c804000034878000a
:102310000c06e9000c80400002c3b30002487800bc
:10232000ffb297000500e000040032000c06e9004f
:102330000c80400002c2b3000248780048019000bf
:102340000201e9000c0151008c8040000e0278006f
:102350008a01780009007800b40007009900900015
:102360000188a3000400320098009000810f500003
:1023700001003d00010078004f0778004f06be00c5
:102380004f05be004f04be00af01b10000000600c3
:102390008201780001017800f1ff27004603370031
:1023a00084082000848f50001d0032000d003c0086
:1023b00014082000848f50002700320002003c00e7
:1023c000040820000400370024082000848f5000f7
:1023d0003600320044082000848f500047003a0045
:1023e0003a003700040a2000848f50002900320090
:1023f00004003c0004092000848f50003f003a0094
:102400002a003700020c2000828f50003300320077
:10241000020f2000828f500038003a002f00370052
:102420009380e9000200e000050032008109780095
:102430001102fb00cfa2de00612bb9002c00370097
:1024400081097800114278000482fb008002eb00d1
:102450006033b8002600370013027800e400520011
:102460000200e000060032008109780011027800c5
:10247000910290004fabde00860378001c0037000d
:102480008109780011027800910290006033b80051
:10249000170037009380e900810978001102780065
:1024a000cfa2de00612bb900110037009302780043
:1024b000e8805200810978001102780091029000b2
:1024c00021039000b1039000090037009380e900d8
:1024d0000200e00002003200efff37009380e900c5
:1024e00081097800110278008002eb006033b800a7
:1024f0000498be000690be00100005000000050014
:1025000044082000848f50002500320008003c0061
:1025100014082000848f500014003200240820008a
:10252000848f500024003200040820000c00370083
:1025300004092000848f50001f00320004003c007a
:1025400084082000848f500024003a000e003700d9
:10255000040a2000848f500011003200040c200077
:10256000848f50001d003a000d0037009380e90071
:10257000810978009100780001087800cf91de0091
:102580008288be00140037009380e900810978003a
:102590009100780001087800824878000e0037002a
:1025a0009380e900810978009100780001087800a3
:1025b00082087800080037009380e90081097800dc
:1025c00091007800010878006112b900612bb90010
:1025d0008498be008690be00100005000000050033
:1025e000889fbe00000478004800900082047800b4
:1025f000808f5400010036008004780009017800c3
:10260000580090001b02070058009000090040008d
:1026100050049800c8009000898450004904980034
:102620000048eb004f04be0000000600f2874700a0
:10263000889fbe008a9fbe008c9fbe008e1f7800c0
:102640008004780001057800020478008305780092
:102650006107620002003a008b0f54000800390045
:10266000080178008a00780009007800dcff070084
:102670008b0f540002003900880578001e003700d7
:10268000088655000c017800f00f56000100360056
:1026900002012000010220007e805700fc0107009b
:1026a0008c0678000500370002012000fe805700ec
:1026b00009007800caff0700f0865600ef8f560029
:1026c000f9ff3e004461de0000ff2f008091b90059
:1026d0000c014100fe80570009007800c0ff070090
:1026e0000e00e00004003a00080178008a0078003b
:1026f00009007800baff07000b0078004f07780048
:102700004f06be004f05be004f04be002f01b100b2
:1027100000000600000005000000050000000500a4
:10272000000178000040eb008080fb0081804000c9
:10273000832f210081814100134278000404e000ce
:1027400004003a00902f21008100400011407800e1
:102750000000060092017800934f520005003a00f5
:10276000902f210081004000114078000309e8000b
:10277000010037000040e800ea4f5000eaff360051
:1027800000000600f6874700889fbe008a9fbe00b3
:102790008c9fbe008e1f7800000578000104780031
:1027a00083057800040678000000eb00c0b79f00a6
:1027b0008080eb00d1b79f00e0b79f00f2b79f0089
:1027c0000008200080bf9f0098007800010078007a
:1027d0008004eb00010037008904e80030417800f4
:1027e0000204e0000300320053c2b300834f5100e3
:1027f000f9ff3a000900e000040032000901780006
:102800000a00780076ff0700188c4400180778004b
:1028100050c2b3009e4f10003f013a000e07e8007f
:102820000e0c780010003700cfb097000100a00018
:102830000b003700cfb097000110a0000800370050
:10284000cfb097000120a00005003700cfb097005f
:102850000130a00002003700cfb097000140a00077
:10286000c1b79f00000ce800180078009040780085
:10287000b2c2b30082cf5000f1ff320007003c002b
:1028800002c2b30082cf5000f0ff320032c2b30068
:1028900082cf500007003a00efff3700d2c2b300ea
:1028a00082cf5000e0ff320002c3b30082cf50005d
:1028b000e0ff3200a2c2b30082cf50000d003a0008
:1028c000000ce8001c80e900000e78001000780081
:1028d000e0b79f000000e0000f003d00cfb0970080
:1028e0000100a200c1b79f000000ea00e0b79f000e
:1028f0000900370039010700e0b79f0001003700e9
:10290000000ce800180078009000fb000103b10003
:10291000e98f5000faff36004fb097000008a3007f
:10292000020032000010a100c0b79f00180078001c
:10293000e1c2b30090cf100016003a008000eb0017
:10294000d1b79f000000e800000c7800a1c2b300de
:1029500090cf100006003a00000ce8001c80e9004f
:10296000000e780010007800d0b79f0009003700f3
:102970001a010700d0b79f0001003700000ce800e3
:10298000180078009000fb000103b100e98f5000af
:10299000faff36000800780061ff070080467800e3
:1029a000180078001000fb00b50107009106200018
:1029b000810f50003800320012003c004106200018
:1029c000810f5000340032000a003c001106200044
:1029d000810f50002000320031062000810f50008e
:1029e000a000320051022000810f5000bc003a00cc
:1029f000b400370071062000810f5000b8003c0081
:102a00008800370001072000810f50005c00320071
:102a100007003c00e1062000810f50007a003200e0
:102a2000f1062000810f5000ad003a003900370058
:102a300051072000810f500027003200810720003d
:102a4000810f50004200320031072000810f5000fa
:102a5000a3003a008f0037008d80fb000c01780046
:102a600000fe2f000f004000b80107000000e0004a
:102a7000a800320018007800000ce80090417800af
:102a800002fe2f000f014100f88057000a00780075
:102a900021ff07000e0037008d80fb008c017800bd
:102aa0001200200000fe2f000f0040003cfe070037
:102ab0000000e00097003200180ce80002fe2f0032
:102ac0000f014100f88057000a00780044fc07001d
:102ad00080844400900037008d80fb008c017800da
:102ae0000001eb0000fe2f000f0040002cfe07004d
:102af0000000e00087003200180ce80002fe2f0002
:102b00000f014100f88057000a00780046fd0700d9
:102b1000efff37008d80fb008c0178000001eb0097
:102b200000fe2f000f0040001dfe07000000e00027
:102b300078003200180ce80002fe2f000f0141005f
:102b4000f88057000a00780081fc0700e0ff37009a
:102b50008d80fb008c0178000001eb0000fe2f004f
:102b60000f0040000efe07000000e0006900320088
:102b700018007800000ce800904178001c00370035
:102b80008c0178000001eb00010f200000fe2f00f7
:102b90000f00400002fe07000000e0005d00320070
:102ba000180ce8000fb097009fb097002fb1970066
:102bb000bfb19700e00f5000e08f5800e00f5900c0
:102bc000e08f590009003a00cfb597006fb4970025
:102bd000002f2100120107000b0278008801780005
:102be00000017800012f21004700370083c7b300a0
:102bf00002fe2f000f014100f88057000a00780004
:102c000034fd0700b2ff37000b8144008d80fb00cc
:102c10008c01780000fe2f000f00400038fe0700f6
:102c20003c0037008d80fb000c01780000fe2f0077
:102c30000f004000450107000000e00035003200b1
:102c400018007800000ce8009041780002fe2f0088
:102c50000f014100f88057000a007800aefe07001f
:102c60009bff370000c8b30080cf560029003a0010
:102c7000180ce8001c80e900000e78001040780075
:102c8000e0df9f0013002000e2fd2f000f01410054
:102c90000800370000c8b30080cf56001d003a007e
:102ca000180ce8001c80e900000e78008001eb00a1
:102cb00010017800f88057000a0078005dfc0700da
:102cc00083ff370000c8b30080cf560011003a00e0
:102cd000180ce8004fb29700efb1970008003700da
:102ce0000e0c78000000eb00c0b79f00e0b79f001b
:102cf0000080eb00d0b79f000002eb008401780059
:102d000012002000612f21000a00780047fe070012
:102d10006fff3700180ce800090078004f077800b3
:102d20004f06be004f05be004f04be006f01b1004c
:102d3000000006008200fa00889fbe008a1f78000b
:102d40000005780082047800c13f9f000004eb007a
:102d5000100037000902780088017800a2f72f00e0
:102d60000f01410081f72f008f8040000a0078009a
:102d700084fe070008004000880f500004003d005a
:102d8000b0042000709888000084eb000400370035
:102d9000000478004f3897001004e000edff3a007f
:102da000080078004f0578004f04be000080fa004c
:102db00000000600800078001000200002022000c1
:102dc000828f500004003200e9805000e48f5000f0
:102dd000010036000000eb0000000600889fbe00e6
:102de0008a1f7800000578000a047800984478006b
:102df0000805e8000900fb00eeff07000000e00006
:102e0000f9ff3a00b0c2b30080cf54000500320091
:102e1000d0c2b3008000eb0080cf540005003a0020
:102e2000020037008000eb00010037001100200095
:102e30000804e8000000eb0003003700ea00b900d6
:102e4000020050000003b0003801fb0003fd2f001a
:102e500082814100e98f5100f8ff36000100e00057
:102e600001003a000000ea004f0578004f04be0060
:102e7000000006008001780002003700b159780098
:102e80000201e9000200e000fcff3a000000060039
:102e9000889fbe008a9fbe00800478000200e00088
:102ea0005b00320001407800814c78008281440050
:102eb000f1f99f00e20f510055003600914498004f
:102ec000a1449800e1f99f00d1f99f00e60f51005d
:102ed0004f003600b1449800c1f99f00e80f51003f
:102ee0004b0036000905ea00630565000a844400ca
:102ef0000a055100c1ff2f00010565000080fb009d
:102f00008000eb001210200013102000de000700ec
:102f1000008cbe000a01440060b99f0071b99f0097
:102f2000e80f55003a00360020049800310498005c
:102f3000400498005104980020b99f0031b99f00c7
:102f400040b99f0051b99f00f80f5500300036007e
:102f50006004980071049800000c9800110c98000f
:102f6000200c9800310c9800400c9800510c9800ef
:102f700020b19f0031b19f0040b19f0051b19f002f
:102f800060b19f0071b19f0000b99f0011b99f000f
:102f90006401640078014100020444000205550008
:102fa0006011b8000203be000002be000403be00b0
:102fb0006022b8000000720081807200020173007c
:102fc0008381730010003700009cbe000294be0095
:102fd000400498005104980062049800730498001b
:102fe000000c9800110c9800220c9800330c9800eb
:102ff000400c9800510c9800620c9800730c9800db
:103000000a02b1000802b000ff0f5500eeff3e00bb
:10301000090078004f05be004f04be000000060006
:1030200080007800040037003104e00002003a001c
:103030000000510000000600010178000108a30013
:10304000f9ff3a008101780031017800f4ef2f0098
:10305000020242000281ea00020162000408280024
:1030600004016100f7ff320083007800010178005d
:103070003104e000fdff3a000000510000000600ae
:10308000f1fb2f0080804000f98f500001003e00ce
:103090000050a00000000600f9ff3700f1f92f00f2
:1030a00080804000f98f500001003e00f005b20022
:1030b00000000600f9ff3700f28747008e1f7800f6
:1030c00002027800030178000000e00002003200f4
:1030d0000007780001003700728757008002eb007c
:1030e0000100e000010032008102e9007080570019
:1030f000060009000018eb000080eb0080bf9f0075
:103100002310200093bf9f00aebf9f00b1bf9f0060
:10311000c5bf9f000100e00003003d00b104200096
:103120007198880006003700004feb00eebf9f004b
:10313000debf9f00840078007080570025000700e4
:103140004f0778002f01b10000000600881f7800ab
:103150000004780000082000808f50001a0035001d
:1031600010082000808f50000d003400300820002f
:10317000808f500014003a00920078006880500060
:10318000000978001002780090029000200390005f
:10319000b0039000049cbe000694be0008003700f7
:1031a000920278006480520000097800900090003c
:1031b0001000780015000700009cbe000294be00bd
:1031c00010002000010037000000eb004f047800e1
:1031d000000006000200fa00881f78000004780052
:1031e000e2bf9f006481570008007800d1fe07000d
:1031f000980090000148a300010032000080eb001d
:103200004f0478000080fa00000006008103780077
:10321000cff507000001be006000b8000478a300ed
:1032200013003a006220e10015003e000d00390055
:103230008301d1000281d3008180d3008301d100ba
:103240000281d3008180d3008301d1000281d300a9
:103250008180d3000538b000c42add00f300b2003d
:103260008381720007f0a70003f0a00000000600b1
:1032700083ff2700020020006110b900f9ff37002a
:1032800003ff2700f7ff3700020ab900001bb9004f
:103290000200b800810042008100430000000600e7
:1032a00007f82700078361000638e10004003a00b0
:1032b000f7072000878361008703710001003a004f
:1032c00003f0a200889fbe008a9fbe008c9fbe00b4
:1032d000470ade000480a100c71ade000580a100b5
:1032e000070028000785600087856100f70f200030
:1032f0000720e1009e0032000728e1009c00320018
:10330000010678000400e000b4003200f707200056
:10331000878060000170a0000500e000c00032005e
:10332000f7072000878161000370a00005065200a6
:103330000f003a000b50e1000b0032000308e100df
:1033400002003a000200e1007e0032000204500058
:1033500083845800040031000001fd008101fd005c
:103360008402fd008a05fd006044b800210037009a
:103370000520e10005003d000001fd008101fd0088
:103380008402fd008a05fd00050652007a60e10016
:10339000050035000170a1004722dd008480700027
:1033a0008a807000630037006044b800ef02660056
:1033b00007ff2f00070666000500e0000600340046
:1033c000f08312008714dd000511de00071bdd000d
:1033d000060171008519de007060e100050035000e
:1033e0000904780082047800030178008001eb0072
:1033f000700656000b50e10003003a000200400046
:10340000838048000400370060041400e0841c003e
:1034100002005800838058000188a3000600320093
:103420008100d1000080d3008984d3000884d300b8
:103430000402e800270037000178a30025003a00c5
:103440000100e000030032008186cf00698656004b
:103450000a0037008c0020000000e00004003a0061
:1034600009007800880478000004eb007002520024
:103470008086cf000d0646000c06e9007060e10072
:103480000600350080007800090078008804780084
:103490000004eb0070065600700252000c00e000c1
:1034a0000c0034008c08dd00f00316000703de007a
:1034b000868070000c00dd00074bde000600700007
:1034c0008c4cdd000743de00868474000c44dd0074
:1034d0000c0252006120e100200035006101600013
:1034e0000700280087816400f7ff270087836400b6
:1034f000070374000300e00006003200820373003b
:10350000040032000000e800e08048000188a300c9
:103510000e003a00f70f20000720e1004a003d00ae
:103520000170a1004722dd00810072008a807000d6
:103530000000be004f06be004f05be004f04be0097
:10354000000006006000b800faff37008100d100db
:103550000080d3000402e800eeff37000401780089
:103560008901740074f607008a807000f1ff37004b
:10357000caf60700070278000001fd008101fd0086
:10358000c6f6070087027800850372000778a3005b
:10359000040032000001fd008101fd00d9f60700a2
:1035a000e4ff3700850362000768a30008003200cb
:1035b0000b50e10003003200f0ff2f00f1ff270065
:1035c000dcff37000001fd008101fd00d9ff37005d
:1035d0000468a300d7ff3200faff3700f8ff270086
:1035e000888360000b003a000000e00009003a0008
:1035f0008303640082837300020032000200be0075
:10360000ccff37000b50e100ceff3a000200be00b5
:10361000c8ff370014002000810064003eff37001f
:10362000f8ff27008883610004003a000200e000f0
:1036300002003a008c007800beff37001500200021
:103640008301640039ff370001f8270000002000e3
:1036500081007500b7ff3700889fbe008a9fbe00bb
:1036600030044200b0844a0030054b0090854b0086
:103670006000b1000898be000a90be000440e1005e
:1036800005c8e10006d0e10007d8e10002003100e2
:10369000680040001008e8004f05be004f04be005f
:1036a00000000600889fbe008a9fbe0010047800bc
:1036b0009004900020059000b0059000041854007c
:1036c00005985c0006185d0007985d001100200059
:1036d0000440e10005c8e10006d0e10007d8e100a0
:1036e000010039008000eb00108810004f05be007b
:1036f0004f04be00000006001200fa00889fbe00c2
:103700008a9fbe008c9fbe00e0b79f00f1b79f006c
:1037100082bf9f0093bf9f000605be000404be0049
:103720000000eb00d0b79f00c0b79f00b0b79f006c
:10373000a0b79f0090b79f00000678005fb1970088
:10374000cfb09700820141003fb097000200e00037
:1037500004003d00370007007e805700beff0700d1
:1037600003003700330007007e805700cdff0700bd
:10377000dfb697000d00e0000c0035006fb2970037
:10378000ffb297000fbb97009fbb9700100020006f
:10379000010020006011b8000002720081827200f6
:1037a00002037300838373001b0007000c06e8000c
:1037b00001042000810f5600e0ff3a000d00e000f8
:1037c00004003d000802be000a03be007e805700d0
:1037d000a1ff07005fa897000000e00005003a0085
:1037e0001fb29700afb297003fb39700cfb39700d7
:1037f000090007006fb09700ffb097000fb997005e
:103800009fb997004f06be004f05be004f04be0093
:103810000080fa000000060001000700000006001a
:10382000a4b79f00b5b79f00c6b79f00d7b79f004a
:10383000000006004f09de0082817100b3b79f00cf
:103840004f01de008180400082807000a1b79f00a0
:103850008fb097004f09de000000400002007000aa
:1038600090b79f007fa897004f01de008180400045
:103870008280700081b79f000d0007004f3ade0084
:103880000000400004007000f0af9f000800070037
:103890000402420085824a0006034b0087834b00e6
:1038a000dfff07000802be000a03be00000006009a
:1038b0002fb29700bfb297004fb39700dfb39700c6
:1038c00000000600881f780018002000881f78007c
:1038d00089ff07008f87e9004f0478000000060089
:1038e000801feb0084ff07008f87e90000000600bf
:1038f000889fbe008a9fbe00e00f5000e08f5800f6
:10390000e00f5900e08f59000c003d006044b80002
:103910006055b8000000540081805c0002015d0029
:1039200083815d00180020001500070008003d009d
:10393000180007000004eb00050037000004eb004e
:103940000f00070002003d001200070018002000d1
:10395000dcff07000800e000060032006022b8002b
:103960006033b8000000520081805a0002015b0001
:1039700083815b004f05be004f04be0000000600bf
:10398000e00f5200e08f5a00e00f5b00e08f5b0019
:10399000000006006044b8006055b80004025400fe
:1039a00085825c0006035d0087835d0000000600e1
:1039b000889fbe008a9fbe008c1f7800e00f5000d9
:1039c000e08f5800e00f5900e08f59000d003d00d6
:1039d0006044b8006055b8000000540081805c006d
:1039e00002015d0083815d001c0020000820e100d1
:1039f00009a8e1000ab0e1000bb8e1000d003d00ac
:103a0000080037000006eb00e00f5200e08f5a007c
:103a1000e00f5b00e08f5b0006003d006044b800f3
:103a20006055b8000402540085825c0006035d0006
:103a300087835d00aaff07000c00e000060032004b
:103a40006022b8006033b8000000520081805a0044
:103a500002015b0083815b004f0678004f05be00ca
:083a60004f04be000000060047
:020000040000fa
:103a6800244d0000414700002c250000642c000074
:103a7800256400002c250000642a00000a000000cc
:103a880024590000415700002c250000642a00003a
:103a98000a000000244d0000534700002c250000b8
:103aa800732c0000257300002a0a00000052000051
:103ab8004154000045000000244e00004557000016
:103ac8005f52000041540000452c000025640000ae
:103ad8002a0a00000024000045520000522c000071
:083ae800312a00000a00000071
:020000040000fa
:103af0008000fa00889fbe006e2eef007073800079
:103b00007072880070728000f0718800f07180001f
:103b10007071880070718000f0708800f070800013
:103b200070708800612ea9000001eb008121210046
:103b300000012100920207000001eb008121210019
:103b4000401121008e0207000001eb0081212100bd
:103b5000601921008a02070010002000000f980061
:103b60000000eb00603f98000000eb00703f980001
:103b700010c0b30098040700d904070051002000ca
:103b800010002000f801070034cea90011c0b300d6
:103b9000b0c4b3000c05070034cea80051002000cb
:103ba00010002000f001070034cea90001c3b300cb
:103bb000c0c4b3000405070034cea80051002000a3
:103bc00010002000e801070034cea90000c4b300b3
:103bd00007050700004f780034cea8001e80fb00c8
:103be0004400de00004078000043b00080407800d0
:103bf00010c0b3003a0407009e4078006fc0600018
:103c00000043b0008040780010c0b30034040700c7
:103c1000a1c0b30010c0b30031040700a100200010
:103c200020002000370107001100200020002000a4
:103c300029020700100020000093880001003700cf
:103c400000000000d500070034cea90021c4b30055
:103c5000a0252100ef04070034cea800b0252100e4
:103c600090407800a025210010407800120020002c
:103c70009e0007001007980022002100c1232100a8
:103c80001e0090006700070020079800d025210043
:103c900090407800c02521001040780022002000cc
:103ca00092000700300798003200210061242100b3
:103cb0003e0090005b00070040079800f0252100bf
:103cc00090407800e025210010407800320020006c
:103cd00086000700500798004200210001252100be
:103ce0005e0090004f000700600798003080800061
:103cf0006a00400030808800408080006a004000f8
:103d000040808800608080000000e00018003200e1
:103d100060808000813e20000001780011000900d1
:103d20008200d8008000780030808000808f5000b2
:103d30000f003c000630ef00ee009000811f78007d
:103d40004e019000821f7800ae009000811f780025
:103d500040d32900801f78008021210088f70700c8
:103d6000e88757008121210010c0b300ee0307004f
:103d700041808000700c2000808f500019003400ba
:103d80000830ef002e009000cf80de00ebf207003d
:103d90000004be004e009000cf80de00e7f2070076
:103da0000801be00ccf5070002ee220053262400d5
:103db000dbf30700a5f20700700798007e01900072
:103dc000821f780040d42900801f780080212100c4
:103dd0006bf70700e48757008121210010c0b30072
:103de000d10307005180800010032000808f500015
:103df000020034000a30ef006e0007002168a900bd
:103e00007b0007002168a800200020003d0107007a
:103e1000e08b80000000e00089ff34002188a800ca
:103e200088ff37000a00fa00200798003107980041
:103e3000420798004e009000104078000080fb0080
:103e400000004000be00900000804000ae009000e6
:103e5000010878004e009000104078000080fb00c0
:103e60008000e800500020000001780011000900e7
:103e70008200d8008000fd00804078004e00900055
:103e8000014878000000eb00000f78000040eb00d4
:103e9000204798000a0037002e4090000080fb0069
:103ea00000004000be00900000804000100078003c
:103eb0001e0f40002e4090000040e8002047980070
:103ec0002e409000e44f5000f3ff36001e017800b2
:103ed000706626000090b9008180d1004f90de000e
:103ee000008050000080fa00000006000800fa0080
:103ef0004047980051479800320798003e009000d4
:103f0000e10f5000030032003e009000e20f50002d
:103f100011003a00ce40900080cfb30000c0600096
:103f2000304798005e4090000080fb00c800dd0034
:103f30003e4090000080fb00008f70001e00780063
:103f40000000e00001003d00670040004380de000b
:103f5000000f78000e0037004e4090000004a100d2
:103f6000204798005e4090000080fb00c800dd0004
:103f70002e4090000080fb00008f70001e00780033
:103f8000cf00de00008040000080d100000f7800ec
:103f90001e0078000080fa00000006000000fa0011
:103fa0007100200010002000ef0007000080fa00e0
:103fb000000006000000fa00207380004900de00c7
:103fc000614060000004a200614060000080fb00ce
:103fd000610060004900dd00217380000190a100b4
:103fe00001007000207388000080fa0000000600c5
:103ff0000400fa003b0037002e409000804078001b
:104000000026210059020700e10f500035003a0058
:1040100080262100801f780020262100801f780044
:10402000e0d42900801f780080212100c7f6070016
:10403000e68757008121210010c0b3003a03070032
:10404000b1d5290020262100daf607000000e000a3
:1040500024003a0080262100c4020700000f7800e7
:104060001e0078000000e0000f0032001e00780003
:10407000e10f50000c0032001e007800e20f5000eb
:10408000090032001e007800e40f500006003200e4
:104090001e007800e50f5000030032001e0078007b
:1040a000ea0f50000c003a009e1f780000d629004d
:1040b000801f780080212100a4f60700e4875700c4
:1040c0008121210010c0b300170307009e00780073
:1040d0006180880003003700f1d6290010c0b300ca
:1040e000110307000e80e800800078000001210025
:1040f0006a0107000000e000bfff3a000080fa00fc
:10410000000006000c00fa00889fbe0040079800df
:1041100051079800de009000800c2000808f500036
:1041200002003400800c200050079800100020008e
:10413000000f78000000eb00100798005e00900070
:10414000e20f5000060034001e0078004300dd003e
:10415000000f78001e0090000000e8001007980093
:104160005e009000ea0f5000060034001e00780048
:104170004300dd00000f78001e0090000000e80002
:1041800010079800de00900020032000808f500070
:10419000060034001e0078004200dd00000f7800a9
:1041a0001e0090000000e800100798001e00780034
:1041b0008000eb00e4f107000001be000044250090
:1041c00091c82400f7f107000004be005e009000d3
:1041d000cf80de00d9f1070002002000a3472400b1
:1041e000f0f107000001be000800be00ccf207009d
:1041f00020079800310798004e009000e20f500011
:1042000017003200e30f500028003200e10f500089
:1042100039003a0005e1a9001e0090000040780036
:10422000634060000080fb00630060004400dd002c
:1042300022088000f1fc2f00810061000100700065
:10424000200888002e009000be009000a0f107001a
:1042500000007800100888000021ef0026003700d9
:1042600011e1a9001e00900000407800634060004a
:104270000080fb00630060004400dd0082088000d5
:10428000f1fc2f00810061000100700080088800af
:104290002e009000be0090008df107000000780015
:1042a000600888000621ef001300370013e1a90021
:1042b0001e00900000407800634060000080fb001a
:1042c000630060004400dd0092088000f1fc2f00d4
:1042d0008100610001007000900888002e009000ad
:1042e000be0090007af10700000078007008880096
:1042f0000a21ef00000000004f04be000080fa0019
:10430000000006000200fa00000f78001e0078008e
:10431000e10f500003003200e20f500008003200ad
:104320000f003700000000000040800068006000bf
:104330000000e000fcff32000068a9000800370020
:1043400000000000014080000008200000806000a4
:104350000000e000fbff320000e8a90000000000c0
:104360000080fa00000006000400fa00000f780048
:10437000110798009e0090001e00780061ff070062
:10438000110020001e007800530007001e00780076
:10439000dcff07001e007800e10f500002003a0029
:1043a00005e1a900040037001e007800e20f50006c
:1043b00001003a0011e1a9000080fa0000000600a7
:1043c0000400fa00100798000000eb00000f7800ce
:1043d0001e009000e10f500003003200e20f500079
:1043e0000f0032001e0037000040800068006000af
:1043f0000000e0000300320010002000000f7800f1
:1044000017003700000000000040800068006000d6
:104410000000e000fcff32000068a9001000370037
:104420000140800000082000008060000000e000e3
:104430000300320010002000000f78000800370051
:1044400000000000014080000008200000806000a3
:104450000000e000fbff320000e8a90000000000bf
:104460001e0078000080fa00000006000800fa0034
:104470002007980031079800120037003e00900096
:10448000810c2000810f500001003400800c2000be
:10449000000f78009e0078002e00900019ff0700a2
:1044a000110020002e0090000b0007002e0090004d
:1044b000c3ff0700100798003e0090001e00500048
:1044c000300798003e0090000000e000ebff3c0049
:1044d0000080fa00000006000400fa00000f7800d7
:1044e000110798001e007800e20f50000e00320005
:1044f000e30f500016003200e10f50001e003a009a
:104500001e00900000407800614060000080fb00c9
:104510004f00dd002108800001f0a10001007000c3
:1045200020088800140037001e009000004078002a
:10453000614060000080fb004f00dd0081088000ca
:1045400001f0a10001007000800888000a00370017
:104550001e00900000407800614060000080fb0079
:104560004f00dd009108800001f0a1000100700003
:1045700090088800000000000080fa00000006009b
:104580000800fa00100798002107980032079800e9
:104590001e0090008000eb00213098001e0090006b
:1045a0008000eb00313098001e0090008000eb008e
:1045b000413098001e009000ae00900061309800dd
:1045c0001e0090003e019000523098000000eb0069
:1045d000000f7800080037009e0090007203200052
:1045e0001e00410000004000008040008000eb0001
:1045f000010878001e0fe8003e0090009e00780041
:10460000808f5000f4ff35000080fa0000000600a3
:104610000400fa00000f7800214798001e0078007f
:10462000c030900040062000808f500002003a0009
:104630000000eb00170037001e00780030309000bb
:104640009e00780000804000ae4090000148780055
:104650001e007800303090008000e8004006200006
:1046600000017800110009008200d8008000fd00e0
:10467000800078001e007800313098001e0078001d
:10468000403090008000e8001e0078004130980023
:10469000100020000080fa00000006000400fa006c
:1046a000000f7800110798001e007800403090003d
:1046b0000000e00002003a000000eb0018003700a4
:1046c0001e007800203090009e007800008040009e
:1046d000904078001e009000014878001e0078008d
:1046e000203090008000e8004006200000017800a3
:1046f000110009008200d8008000fd0080007800d1
:104700001e007800213098001e0078004030900094
:104710008000e9001e007800413098001000200061
:104720000080fa00000006000400fa00000f780084
:10473000110798001e007800c03090001e00900005
:10474000808f500002003c000080eb000d0037001d
:104750001e007800a03090001e0090008080400075
:104760004006200000017800110009008200d800f6
:104770008000fd009e00780000804000104078001e
:104780000000fb000080fa00000006000200fa00b2
:10479000004f780000000000111180000020200070
:1047a000008060000000e000fbff3a001e00fb00fc
:1047b000201188000080fa00000006001800fa00ae
:1047c000300f98000000eb00000f78006100370008
:1047d0000000eb0010079800500037000000eb00cd
:1047e00020079800030037002e0090000000e8002a
:1047f000200798003e089000e03090001e009000d6
:104800000000400000804000900078002e009000e2
:1048100000804000104078000004e000f2ff3a0001
:104820000000eb00300798001000200040079800bf
:1048300016003700be0090003e089000baff070047
:10484000800078003e089000603190001e009000cb
:104850000000400000004100100178003e00900080
:1048600000004100104078000000fb00808f5000e5
:10487000030032000000eb004007980007003700fb
:104880003e0090000000e80030079800be00900055
:104890002e009000808f5000e6ff35004e00900003
:1048a0000000e0001a0032000000eb005007980002
:1048b000090037005e009000ec00470000804000d7
:1048c000800078003e08900074ff07005e009000b2
:1048d0000000e80050079800de0090002e009000d5
:1048e000808f5000f3ff3500be0890001e0090003e
:1048f0007003b00000004000008040001100200064
:104900000108780010002000000f78000800370030
:104910001e0090000000e800100798003e0890007c
:10492000d03090001e009000808f5000abff3c0004
:104930001e0078000000e00004003a006c00470010
:10494000800078003e08900054ff07000000eb0054
:10495000000f78003e08900040309000e20f5000b9
:104960009bff3c000080fa00000006000400fa00f3
:10497000000f7800214798001e0078001000780092
:10498000e20f50000f003200e30f50004a003200e7
:10499000e10f500072003a00ae40900040c2b300f8
:1049a00080cf50006d003a001e00780021002000ea
:1049b000010878001e0078008000eb00613098004c
:1049c00067003700ae409000c0c2b30080cf5000f7
:1049d0000e003a001e007800310020000108780027
:1049e0001e007800603090009e007800008040003b
:1049f0000080e8008040eb00014878001e0078004d
:104a00008000eb0071309800550037001e007800e0
:104a100060309000e60f500007003a001e0078005a
:104a200011002000010878001e0078008000eb00d3
:104a3000613098004a003700ae409000a0c2b30039
:104a400080cf50000f003a001e00780011002000b7
:104a5000010878001e007800603090009e00780009
:104a6000008040000080e8008040eb0001487800b2
:104a70001e0078008040eb000148980010002000e4
:104a8000380037001e007800603090009e007800eb
:104a9000008040000080e800ae40900001487800af
:104aa0001e007800603090008000e8001e00780052
:104ab000613098002a003700ae409000a0c2b300d9
:104ac00080cf50000c003a001e007800110020003a
:104ad000010878001e007800703090009e00780079
:104ae00000804000680040008040eb0001487800f2
:104af000100020001b0037001e007800f0309000ee
:104b000040062000808f500007003a001e00780009
:104b100011002000010878001e0078008000eb00e2
:104b2000713098000e0037001e0078007030900041
:104b30009e0078000080400068004000ae40900079
:104b4000014878001e007800703090008000e80076
:104b50001e0078007130980001003700000000004e
:104b60000000eb000080fa00000006000800fa00d8
:104b7000300798000000eb00000f78000000eb0009
:104b80001007980010002000200798001e007800f1
:104b9000be0090000080400090407800d0c2b3007a
:104ba00080cf500004003a000080eb0020079800fe
:104bb0001e0fe8001a0037001e007800be009000ab
:104bc0000080400090407800b0c2b30080cf500019
:104bd00012003a0010002000200798001e0fe80085
:104be0000f0037001e009000ea00b900100798007f
:104bf0001e007800be009000008040001040780049
:104c00000000fb000003b1009e0090000080400007
:104c1000100798001e0fe800010037000000000098
:104c20001e007800be009000008040009040780098
:104c3000c0c2b30080cf5000060032001e007800d2
:104c4000be00900000804000104078000004e000aa
:104c5000e4ff3a00ae0090001e0090008088b9008a
:104c60000080fa00000006000400fa00000f78003f
:104c700011079800030037001e0090000000e800b4
:104c8000100798001e0090001e0040009040780021
:104c9000c0c2b30080cf5000050032001e0090005b
:104ca0001e004000104078000004e000f2ff3a00cf
:104cb0001e0090001e00400090407800c0c2b3006b
:104cc00080cf500003003a001e0090000000e80072
:104cd000100798001e0090000080fa0000000600f7
:104ce0000200fa00004f7800114798001e4078003b
:104cf000e14f500004003a009e4090004011210016
:104d000043fe0700060037001e407800e24f5000c7
:104d100003003a009e409000601921003cfe07000d
:104d20000080fa00000006000400fa00004f78003e
:104d3000110798002188a9001e407800e14f50001b
:104d40001a003a00080037001e009000104078005a
:104d50009e0090008100e8001107980080407800d4
:104d600010c0b300deff07001e0090001040780066
:104d7000ea4f5000f4ff3a00a1c0b30010c0b300e6
:104d8000d7ff0700110037001e0090001040780088
:104d90009e0090008100e800110798008040780094
:104da00020c0b300ceff0700010037000000000064
:104db0001e00900010407800ea4f5000f2ff3a00c9
:104dc000a1c0b30020c0b300c5ff07002188a80020
:104dd0000080fa00000006000200fa00004f780090
:104de0001e407800e14f50001d003a0021e2a9006a
:104df0000134800000fc2f00008060000000a00053
:104e0000003488002136800000f82f008080600088
:104e1000b0042000010070002036880021e2a900c3
:104e20002002a9000111800090ff2f000080600087
:104e30000011880020a2a9002062a900301d2000d6
:104e4000401188002168a8000168a9002188a900f4
:104e50000188a90021e2a8002342a8001e00370013
:104e60001e407800e24f50001b003a0031e2a900da
:104e70000134800000fc2f00008060003000b3008f
:104e8000003488003136800000f82f0080806000f8
:104e9000b004200001007000303688003002a80005
:104ea0008111800090ff2f00008060008011880039
:104eb00030a2a9003062a900301d2000c011880076
:104ec00023c8a80003c8a90023e8a90003e8a90093
:104ed00031e2a8003342a8000080fa00000006007a
:104ee0000000fa00002ea800518ea90051aea900c2
:104ef000106ea900146ea800108ea900148ea800d0
:104f000030cea90034cea8004136800000f82f0032
:104f1000008060001001b30040368800c13480007a
:104f200000fc2f00008060005000b300c0348800f7
:104f3000b1348000f00f2c00808060000060200001
:104f400001007000b034880042a2a8004342a900ca
:104f500011128000c0ff2f00008060001012880036
:104f600010128000c001b3001012880042c2a800d5
:104f700040c2a90041e2a8000080fa00000006003b
:104f80000200fa00004f78000000000000128000cc
:104f9000620060000000e000fcff3a001e80fb00a1
:104fa00040128800000000000012800061006000d4
:104fb0000000e000fcff320040128000004078005a
:104fc0000080fa00000006000200fa00004f78009e
:104fd000114798001e4078000074a100e8ff070008
:104fe0001e409000e6ff07000080fa000000060067
:104ff0000200fa00004f78001e4078000074a00004
:10500000dfff07000040eb00ddff07000080fa0033
:10501000000006000600fa00881f780010079800bc
:10502000414798004e409000f1ff07009e0090001d
:105030008048780010002000000f7800070037003b
:105040001e0078009e009000008440000040eb00ad
:10505000cbff0700004c78001e0fe8001e00780010
:10506000e50f5000f6ff34004f0478000080fa008e
:045070000000060036
:020000040000fa
:105074001010000008020000800000001812000058
:10508400b800000080000000001000000c000000c8
:10509400800000000c1000000200000082000000ec
:1050a400050000000e100000020000008000000057
:1050b400d012000020000000820000003863ed00e0
:1050c4003eda0f00493f5e00987b3f00da0fc900cb
:1050d4003f693700ac31680021223300b40f14005b
:1050e40033682100a2330000f01200001e0000000b
:1050f40082000000286e69006c2900002500680009
:10510400076c09004c836a009074a0007ac0000008
:105114008068880000846c00820081000e13000007
:0c512400020000008000000000000000fd
:00000001FF
